:100000000001001021100000A1110000611100008A
:100010006111000061110000611100006111000018
:100020006111000061110000611100006111000008
:100030006111000061110000611100002112000037
:1000400061110000611100006111000061110000E8
:1000500061110000611100006111000061110000D8
:1000600061110000611100006111000061110000C8
:100070006111000061110000611100008124000085
:100080006111000061110000C12700006111000032
:1000900041210000F1220000013400006111000044
:1000A0006111000061110000611100006111000088
:1000B0006111000061110000611100006111000078
:1000C000002934D00123002210B488422CD301240B
:1000D0002407A14204D2814202D209011B01F8E7A0
:1000E000E400A14204D2814202D249005B00F8E759
:1000F000884201D3401A1A434C08A04202D3001B85
:100100005C0822438C08A04202D3001B9C082243B7
:10011000CC08A04202D3001BDC082243002803D0F5
:100120001B0901D00909E3E7101C10BC7047002827
:1001300001D00020C04307B4024802A14018029039
:1001400003BDC046DD0000000029F0D003B5FFF775
:10015000B9FF0EBC4243891A1847C0460000000090
:10016000002941D010B4041C4C40A44601230022B5
:10017000002900D54942002800D5404288422CD3AE
:1001800001242407A14204D2814202D209011B01A9
:10019000F8E7E400A14204D2814202D249005B00A8
:1001A000F8E7884201D3401A1A434C08A04202D310
:1001B000001B5C0822438C08A04202D3001B9C0851
:1001C0002243CC08A04202D3001BDC0822430028B3
:1001D00003D01B0901D00909E3E7101C6446002C79
:1001E00000D5404210BC7047002806D003DB002039
:1001F000C043400801E08020000607B4024802A185
:100200004018029003BDC046190000000029EBD041
:1002100003B5FFF7A7FF0EBC4243891A1847C04633
:100220007047C04600000000000000000000000011
:100230008446081C6146FFE71FB500F049FB002813
:1002400001D40021C8421FBD10B500F0C9FA4042D8
:10025000013010BD10B500F03BFB002801DB002091
:1002600010BD012010BDC04610B500F031FB0028C4
:1002700001DD002010BD012010BDC04610B500F00A
:10028000DFFA002801DC002010BD012010BDC046AF
:1002900010B500F0D5FA002801DA002010BD0120C9
:1002A00010BDC0460000000000000000000000007B
:1002B000F8B543024400C50F4E024800240E2A1C24
:1002C0009B09000EC90FB6098D425BD0221A002A85
:1002D00000DC89E000281DD1002E00D075E0580711
:1002E00004D00F221A40042A00D004338021C9040C
:1002F00019402A1C00293AD00134FF2C00D17FE09C
:100300009B015B0A5B02E4B2E405580AD207204372
:100310001043F8BDFF2CE2D08021C9040E431B2AF4
:1003200000DD2DE1311C2020D140821A9640721E42
:1003300096410E439B1B5801D1D59B019F09381C48
:1003400000F03EFE421F974094425BDC141B1F23CB
:100350001B1B3A1C9F40611C3B1CCA405F1EBB41DB
:1003600013430024BBE7131EB9D100230022DB088E
:10037000FF2C04D1002B43D08020C00303435B0239
:100380005B0ABFE7211A002940DD002823D0FF2C9B
:10039000A5D08020C00406431B2900DDEEE0301C00
:1003A0002027C840791A8E40711E8E4106439B1942
:1003B000590100D493E70134FF2C55D07149012233
:1003C0001A400B405B08134389E7013A002AB1D079
:1003D000FF2CA4D183E7002E00D180E7013900294A
:1003E000E5D0FF2CD8D17AE7002A1BD1621CD2B20B
:1003F000012A4BDD9F1B7A0123D5F71A0D1C9EE7BE
:1004000000237FE75F4BA41A3B4068E7002946D1F1
:10041000611CC8B2012829DDFF2924D0F3185B082C
:100420000C1C5CE7002C13D0FF2818D08024E404B7
:10043000524223431B2A4DDD0123F31A041C0D1CD9
:1004400079E7002F00D07AE70023002200248EE70E
:10045000002B3BD0D243002AEFD0FF28EAD1331C37
:10046000FF240D1C3BE7FF24002380E7002C5CD118
:10047000002B00D180E0002E00D130E79B195801FD
:1004800000D42CE73F4A0124134028E7002C15D163
:10049000002B40D1002E63D0331C0D1C1FE7002C15
:1004A00021D1002B54D0C943002904D0FF284CD0BF
:1004B0001B2958DD01239B19041C79E7002B19D156
:1004C000002E48D0331C0D1CFF2408E7331C041CED
:1004D0000D1C04E71C1C2025D440AA1A93405A1E68
:1004E00093412343A9E7FF282FD08024E404494205
:1004F0002343DDE7FF24002E00D1F0E68022DB0855
:10050000D203134204D0F608164201D1331C0D1C4D
:10051000DB00FF24E3E6002E00D1E0E69A1B500149
:1005200000D420E7F31A0D1CD9E6002B0DD0FF24D0
:10053000002E00D1D3E68022DB08D2031342E7D09D
:10054000F6081642E4D1331CE2E7331CFF24C6E66A
:10055000331C041CC3E6802300229B04FF2406E70F
:10056000231C002203E71C1C2027CC40791A8B4057
:10057000591E8B4123439EE7331CB0E6012616E744
:100580000126D7E6FFFFFFFB00000000000000008F
:10059000F0B55F4656464D464446F0B44602450027
:1005A000C00F85B00F1C760A2D0E804641D0FF2D5E
:1005B00026D08024240400212643F6007F3D89466E
:1005C0008B46F90F7C027800640A000E00918A467F
:1005D0003CD0FF2834D080231B041C430023E400BC
:1005E0007F380193009F4346019A7B4049469C46D1
:1005F00011430F2900D971E0764F89007F58BF461B
:10060000002E3ED10822022391469B46D9E75A4646
:10061000341CC24601920199022937D0032900D126
:10062000CFE0012900D0ABE053460B40002200266A
:1006300032E0002E19D10421012289469346C0E7F9
:10064000221C531E9A4102320192CBE701270197E7
:10065000002CC7D0201C00F0B3FC431F9C40762325
:100660005B420021181A0191BCE7301C00F0A8FC85
:100670007625431F9E406D4200232D1A99469B46C6
:100680009FE70C23032199468B469AE7D446012322
:1006900067463B40FF2200267602D205700ADB0740
:1006A0001043184305B03CBC90469946A246AB4661
:1006B000F0BD80260023F603FF22EDE7002200268E
:1006C000EAE78020C00306423BD0044239D1061C31
:1006D00026437602760A009BFF22DDE7281A039064
:1006E00076016401A64239D3361B1A220123012068
:1006F000311C5B007600002901DBB44201D8361BB7
:100700000343013A002AF3DC741EA641341C1C4347
:10071000039A7F32002A27DD630704D00F2323408A
:10072000042B00D00434270103D52B4B039A1C4023
:100730008032FE2A0BDD012361460B40FF2200269A
:10074000AAE706437602760A4346FF22A4E7A401FD
:1007500001236746660AD2B23B409DE7039F1B22F6
:10076000013F03970023C2E77E23039F5B42DB1B0D
:100770001B2B07DD012361460B40002200268BE77F
:10078000D446C5E7221CDA40039B9E339C40231CC1
:100790005C1EA34113435A0704D00F221A40042AB7
:1007A00000D004335F0105D5012361460B400122CF
:1007B000002671E79E01624601231340760A00225B
:1007C0006AE78026F60326437602760A5346FF221E
:1007D00062E7C04690530000FFFFFFF700000000F3
:1007E0004A02430270B55C0A550A43004A001B0ED8
:1007F000C60F120EC90FFF2B05D0FF2A08D001200B
:1008000093420BD070BD0120002CFBD1FF2AF6D102
:100810000120002DF6D101209342F3D1AC42F1D159
:100820008E4205D0002BEDD1201C441EA041E9E7EB
:100830000020E7E7000000000000000000000000CA
:100840004A024302F0B55C0A550A43004A001B0EF7
:10085000C60F120EC90FFF2B31D0FF2A34D0002B48
:1008600016D1604260418446002A14D0002820D16D
:100870008E4217D1934215DC04DBAC4212D8002023
:10088000AC4212D2704270414042012318430CE046
:10089000002AEDD194466F426F416046002805D191
:1008A000002FE5D0704201231843F0BD0020002F37
:1008B000FBD148424841404201231843F5E7002C50
:1008C000CBD002204042F0E7002DC8D0F9E7C04667
:1008D0004A024302F0B55C0A550A43004A001B0E67
:1008E000C60F120EC90FFF2B27D0FF2A29D0002BCD
:1008F00010D0002A15D194466F426F4160460028FF
:1009000015D00020002F04D1484248414042012325
:100910001843F0BD604260418446002AECD00028B4
:10092000F2D18E4211D0704201231843F1E7002F1B
:10093000F7D0704201231843EBE70220002CE8D1E6
:10094000D3E70220002DE4D1D1E79342EBDC04DBB6
:10095000AC42E8D80020AC42DBD270427041404249
:1009600001231843D5E7C046000000000000000046
:10097000F0B55F4656464D464446F0B44402460044
:1009800083B00F1C640A360EC50F002E41D0FF2E17
:1009900022D080231B0400201C43E4007F3E8246BB
:1009A0008046391C4B007F02C90F7F0A1B0E8B4605
:1009B0003BD0FF2B34D0802212041743FF007F3B33
:1009C00000215A466A40019252460A430F2A63D8D0
:1009D0007A48920082589746002C3FD10822022381
:1009E00092469846DDE70195404602282AD1019AB1
:1009F00001251540FF2300246402DB05600AED0792
:100A00001843284303B03CBC90469946A246AB46E7
:100A1000F0BD002C27D10420012282469046C0E779
:100A2000391C4A1E91410231CBE70121002FC8D069
:100A3000381C00F0C5FA431F9F4076235B421B1A07
:100A40000021BEE7032800D1AEE001284FD1019874
:100A500042461040C5B200230024CDE70C230320FA
:100A60009A4680469DE7201C00F0AAFA7626431F8E
:100A70009C4076420023361A9A46984691E7802495
:100A80000025E403FF23B7E75B463C1C019388463F
:100A9000AAE73C1C8846A7E7250C24043A0C240C42
:100AA0003F04F6183F0C211C231C794353436F432A
:100AB0005543FB180A0C9B18B1469F4202D980226D
:100AC0005202AD1809041A04090C521894011B0CA7
:100AD000611E8C41920EED181443AD012C4323018D
:100AE00005D5012263080120144081441C434B4674
:100AF0007F33002B2DDD600704D00F222240042A13
:100B000000D00434220103D52D4B1C404B468033CA
:100B1000FE2B17DD019B01251D400024FF236BE701
:100B20008020C003044208D0074206D1041C3C4385
:100B30006402640A5D46FF235EE704436402640ABC
:100B4000FF2359E70198A4010125640ADBB205409F
:100B500052E77E235B424A469B1A1B2B05DD019B15
:100B600001251D400024002346E7221CDA404B46A5
:100B70009E339C40231C5C1EA3411343580704D0A2
:100B80000F221A40042A00D004335A0105D5019BD4
:100B900001251D40002401232EE701989C01012519
:100BA000640A0540002327E78027FF03019B3C439D
:100BB000640201251D40640AFF231DE7D053000095
:100BC000FFFFFFF700000000000000000000000031
:100BD000F8B5C20F430244004D024800240E161C13
:100BE0009B09000EC90FAD09FF2800D183E0012742
:100BF00079408A425CD0221A002A00DC8EE000286C
:100C00001ED1002D00D07AE0580704D00F221A40E0
:100C1000042A00D004338021C90401221940324043
:100C200000293AD00134FF2C00D183E09B015B0AFC
:100C30005B02E4B2E405580AD20720431043F8BD32
:100C4000FF2CE1D08021C9040D431B2A00DD31E1D6
:100C5000291C2020D140821A95406A1E95410D43DF
:100C60005B1B5801D0D59B019F09381C00F0A8F9E7
:100C7000421F974094425FDC141B1F231B1B3A1C2E
:100C80009F40611C3B1CCA405F1EBB4113430024B4
:100C9000BAE7131EB8D100230022DB08FF2C04D1D1
:100CA000002B47D08020C00303435B025B0ABFE7F1
:100CB000211A002944DD002827D0FF2CA4D0802051
:100CC000C00405431B2900DDF2E0281C2027C84092
:100CD000791A8D40691E8D4105435B19590100D475
:100CE00092E70134FF2C59D0734901221A400B407E
:100CF0005B08134388E7002D00D07AE777E7013AD5
:100D0000002AADD0FF2CA0D17EE7002D00D17BE7DB
:100D100001390029E1D0FF2CD4D175E7002A1BD17D
:100D2000621CD2B2012A4BDD5F1B7A0123D5EF1A78
:100D30000E1C9AE700237BE75F4BA41A3B4063E756
:100D4000002946D1611CC8B2012829DDFF2924D021
:100D5000EB185B080C1C57E7002C13D0FF2818D0A9
:100D60008024E404524223431B2A4DDD0123EB1A65
:100D7000041C0E1C75E7002F00D076E7002300222C
:100D800000248AE7002B3BD0D243002AEFD0FF2873
:100D9000EAD12B1CFF240E1C36E7FF2400237CE73E
:100DA000002C5CD1002B00D180E0002D00D12BE77E
:100DB0005B19580100D427E73F4A0124134023E779
:100DC000002C15D1002B40D1002D63D02B1C0E1C04
:100DD0001AE7002C21D1002B54D0C943002904D09C
:100DE000FF284CD01B2958DD01235B19041C75E733
:100DF000002B19D1002D48D02B1C0E1CFF2403E71B
:100E00002B1C041C0E1CFFE61C1C2026D440B21A0E
:100E100093405A1E93412343A9E7FF282FD08024F3
:100E2000E40449422343DDE7FF24002D00D1EBE633
:100E30008022DB08D203134204D0ED08154201D111
:100E40002B1C0E1CDB00FF24DEE6002D00D1DBE6B0
:100E50005A1B500100D41CE7EB1A0E1CD4E6002BE1
:100E60000DD0FF24002D00D1CEE68022DB08D20376
:100E70001342E7D0ED081542E4D12B1CE2E72B1C0E
:100E8000FF24C1E62B1C041CBEE6802300229B0429
:100E9000FF2402E7231C0022FFE61C1C2027CC4075
:100EA000791A8B40591E8B4123439EE72B1CABE6DE
:100EB000012512E70125D3E6FFFFFFFB000000003C
:100EC0004302590A4300C20F1B0E00207E2B0DDD8A
:100ED0009D2B0CDC802000040143952B0ADC96201E
:100EE000C31AD9404842002A00D1081C7047034B5E
:100EF000D018FBE7963B9940F4E7C046FFFFFF7F21
:100F000070B5041E3CD0C60F00D04442201C00F037
:100F100057F89E23251C1B1A962B0CDC083884409E
:100F20006402640ADBB2321C6402DB05600AD20789
:100F30001843104370BD992B0ADD0522121A211C9B
:100F4000D1400A1C011C1B318D40691E8D41154387
:100F5000052801DD421F9540164C2C406A0704D03D
:100F60000F221540042D00D0043461010CD59F23BD
:100F7000181AFF281AD0A401640AC3B2321CD3E79E
:100F8000002200230024CFE7E408FF2B04D06402F2
:100F9000640ADBB2321CC7E7002C04D08020C003F7
:100FA00004436402640A321CFF23BDE7321CFF23A2
:100FB0000024B9E7FFFFFFFB000000000000000075
:100FC0001C2101231B04984201D3000C10391B0A79
:100FD000984201D3000A08391B09984201D300093D
:100FE000043902A2105C40187047C0460403020294
:100FF00001010101000000000000000000000000ED
:101000007047C04600000000000000000000000023
:10101000FEE7C046000000000000000000000000E5
:1010200072B63B4880F30988022383F31488BFF328
:101030006F8F384B384A9A420BD2131C0432354911
:101040000331891A890889005118344A04C38B4234
:10105000FCD12F4B324A9A420AD2131C0432C11CD3
:10106000891A8908890051182C4A04C38B42FCD183
:1010700001F076FC2B4B2C4A9A420ED22B4B29487E
:101080000330C01A8008013080000023111C284A58
:10109000D458CC5004338342FAD1264B264A9A4284
:1010A0000BD2131C043223490331891A89088900A1
:1010B0005118002204C38B42FCD1FFF7A1FF1F4B44
:1010C0001F4A9A420DD21F4B1C4E0336F61AB60821
:1010D00001360024151CA300EB5898470134B44294
:1010E000F9D103F0D5FF184B184A9A420DD2184B8C
:1010F000154E0336F61AB60801360024151CA30057
:10110000EB5898470134B442F9D1FFF781FFC0464C
:101110000003001000010010000000105555555547
:1011200000010010EC030010000300100403001085
:10113000E85B0000F00D0010F0030010C00000009C
:10114000C0000000C4000000C0000000C00000009B
:10115000C4000000000000000000000000000000CB
:10116000FEE7C04600000000000000000000000094
:1011700072B6FEE700000000000000000000000062
:1011800000F056FA80221206014B5A60FEE7C04674
:1011900000ED00E000000000000000000000000082
:1011A000EFF30983203383F3098862B67047C046A2
:1011B0000F3027D072B6EFF309831A1C203A82F35E
:1011C000098880214904D1610F4A9269D17F0029A1
:1011D00007D00D490968896892688A429241524253
:1011E00007E00949096888689168002288425241ED
:1011F000D2B2002A03D0203B044A9A6102E0203B8D
:10120000034A9A617047C0464804001081110000EB
:101210008411000000000000000000000000000039
:1012200010B5744672B600F0B3F862B6201CFFF732
:10123000BFFF10BD00000000000000000000000023
:10124000F0B544464D4656465F46F0B46B46CB601B
:10125000C3689D46F0BCA046A946B246BB46F0BD59
:1012600062B6281CA04700F063FA70470000000037
:1012700070B5820892000E4BD218C0239B00D5583F
:1012800003240440E400FF26A640B543A1402C1CE3
:101290000C43D4501F23034001229A40131C4009E1
:1012A0008000034A8018C02252008350036070BD42
:1012B00000E100E00000000000000000000000006D
:1012C00010B583089B00074A9B189A6903242040A5
:1012D000C000FF248440A2438140101C0843986151
:1012E00010BDC04600ED00E000000000000000005E
:1012F000024B9B69024A9A61FEE7C046480400100F
:101300001054000000000000000000000000000079
:1013100000B583B0144A154BDA600A200021FFF7AC
:10132000CFFF0B208021FFF7CBFF00F0A9F800F0E2
:101330005FF800F035FC00F06BFC0D48402100F038
:1013400087F90C4B98610122027762B69B690A4AC1
:101350009A61002300930948E0210122084B00F024
:10136000AFF903B000BDC0460000FA0500ED00E093
:10137000F00300104804001020540000100D00106D
:10138000F11200000000000000000000000000005A
:1013900038B5144B9B69DA7F002A01D0013ADA771D
:1013A0001A6A01321A62104BDA680132DA601A687E
:1013B0009A4216D09368013B9360131C9268002AEE
:1013C0000FD10025084CD968DD601A6854601A688E
:1013D000226062B61869884772B623689A68002A44
:1013E000F1D038BD4804001038040010000000009F
:1013F000044B5B601B60012252429A600022DA605B
:101400007047C046380400100000000000000000D3
:101410000361C2600B4B1B689A68914204D9891A18
:101420001B689A688A42FAD303605A68426058601F
:1014300010608160034A934202D09A68511A996001
:101440007047C04638040010000000000000000093
:1014500010B50368074A934203D0996884680A1953
:101460009A60436801681960036842685A60002303
:10147000C36010BD38040010000000000000000030
:10148000034B5B601B6000229A605B611B617047CD
:1014900048040010000000000000000000000000F0
:1014A000002303778268054B1B6899689142FBD241
:1014B00003605A684260586010607047480400102A
:1014C00008B572B6037F032B0CD0DAB2032A02D818
:1014D000002B05D010E0052B08D00D2B06D00BE01B
:1014E00062B60FE0436A9A6801329A604368026804
:1014F0001A60036842685A6001235B424362FFF747
:10150000CFFF62B608BDC04600000000000000002A
:1015100008B5074B996908771422CA7718680268DA
:101520001A605360986101230377FFF789FE08BDB5
:10153000480400100000000000000000000000004F
:1015400010B586B0041C4B1C0FD00B4B9B6901A837
:101550000A4AFFF75DFF201CFFF7DAFF049B002B10
:1015600005D001A8FFF774FF01E0FFF7D1FF024BA0
:101570009B69586A06B010BD48040010C1140000F1
:1015800010B5041C41620A4B9869A26883689A42AC
:1015900003D8201CFFF784FF09E0FFF781FF011C3F
:1015A000034B9C6101232377201CFFF749FE10BDEC
:1015B00048040010000000000000000000000000CF
:1015C00038B5094CA56923681A6822605460A36184
:1015D00001221A771423EB77281CFFF761FFA0691B
:1015E000291CFFF72DFE38BD480400100000000044
:1015F00008B50D4B99691A681068186043609A61C4
:101600000120107700220A778A681B689868904248
:10161000FBD80B605A684A6059601160024B9869A8
:10162000FFF70EFE08BDC046480400100000000091
:1016300008B5054B9B69DB7F002B02D1FFF7C0FF8C
:1016400001E0FFF7D5FF08BD4804001000000000CE
:10165000816002230377002343771422C277016459
:10166000C36383630362012282778361064B036154
:101670005A69426158611061031C28338362043344
:101680000363C3627047C0464804001000000000B6
:1016900010B50C1C243C0419C4602361C368029972
:1016A0005961C36802491962111CFFF7D1FF10BDCF
:1016B00061120000000000000000000000000000B7
:1016C00010B582B072B6049C0094FFF7E1FF041CD1
:1016D0000021FFF755FF62B6201C02B010BDC046C6
:1016E00008B5011C72B60620FFF72AFF62B608BDD6
:1016F00038B50E4B9C696062A06A251C2835A8424B
:1017000006D00268A262FFF7CBFEA06AA842F8D119
:10171000637F9A0705D1636922691A612369646945
:101720005C610E20FFF7F4FE38BDC046480400108F
:1017300008B572B6FFF7DCFF08BDC0460000000028
:1017400040600060002383607047C04600000000D6
:1017500070B5051C314B9C698068002858D0A26880
:101760008168914241D28260027F042A05D0D2B2C0
:10177000052A1DD0002A38D12FE042680368136083
:10178000026846685660416A0A1C1268914203D09A
:1017900093688668B342F8D2026051684160506035
:1017A0000860436A9868A26881689142DBD31CE0B4
:1017B000426803681360026846685660416A0A1C02
:1017C0001268914203D093688668B342F8D20260EF
:1017D000516841605060086007E04268016811602C
:1017E000026843685360FFF75BFE2A1C2B1C1B68D2
:1017F0009A4203D09E68A0688642F8D223605A6855
:1018000062605C60146065620420FFF781FE03E0A3
:10181000AC60E16BE960E56370BDC0464804001050
:1018200008B572B6FFF794FF62B608BD000000006D
:1018300010B5144B986972B6C46BE368C363226831
:10184000A24219D0016C002B09D01A689A4203D029
:101850009268914200D2111CDB68002BF5D18160A7
:101860002068036823605C60A060C36BE360C463AE
:101870000021FFF785FE01E00023A36062B6201C73
:1018800010BDC04648040010000000000000000029
:1018900008B5836B19438163037F082B03D1436A27
:1018A0000B4206D109E0092B07D1436A19408B424C
:1018B00003D1FFF7F5FD0023436208BD00000000DF
:1018C00070B5051C0E1C0468A04209D0E3683343C0
:1018D000E3606068A168FFF7DBFF2468A542F5D1EB
:1018E00070BDC046000000000000000000000000C5
:1018F00008B500290BD0074B9B69586218604268F5
:101900005A60436013600D20FFF71AFE01E00120CA
:10191000404208BD48040010000000000000000024
:1019200010B5406000600024846041618161C16045
:1019300089180161C361029B036210BD00000000B1
:1019400008B543698269934217D18268002A0FD192
:1019500013E0C3684361036883420CD01A680260D5
:101960005060181CFFF79CFD0023436200200FE02D
:10197000042040420CE000200AE0826801328260CC
:101980005A1C42611970426903699A42E1D2E2E746
:1019900008BDC0460000000000000000000000007C
:1019A00038B5041C0D1C72B6C369002B09D09847CA
:1019B00007E0201C291CFFF79BFF002801DA62B614
:1019C0000EE0A368002BF4D0013BA360A269531C76
:1019D000A36110782269934201D3E368A36162B6E0
:1019E00038BDC046000000000000000000000000FC
:1019F000F0B557464E464546E0B4041C8A4691462B
:101A00001E1CC269904672B600274346002B0AD0BE
:101A1000201CC04707E0201C311CFFF769FF00288D
:101A200001D062B616E0A568002DF4D0013DA56096
:101A3000A3695A1CA2611B785246D355A369226937
:101A4000934201D3E368A36162B60137B94501D07F
:101A500072B6DAE7381C1CBC90469946A246F0BD27
:101A600040600060826041618161C16089180161EC
:101A7000C361009B0362704700000000000000008B
:101A800070B5041C0E1C151C72B607E0201C291C26
:101A9000FFF72EFF002801DA62B615E0A368002BDD
:101AA000F4D0013BA36063695A1C62611E706269D5
:101AB00023699A4201D3E2686261E369002B01D095
:101AC000201C984762B6002070BDC0460000000090
:101AD00010B5836942699A4215D18268002A0FD1F4
:101AE00011E0C36883610368834207D01A6802600B
:101AF0005060181CFFF7D4FC00234362201C0CE04C
:101B00000320404209E08268013282605A1C8261EF
:101B10001C7803699A42E4D2E5E710BD000000009A
:101B2000F0B557464E464546E0B4041C0F1C161C43
:101B30009A46C269914672B60023984607E0201C77
:101B40005146FFF7D5FE002801D062B61EE0A56819
:101B5000002DF4D0013DA5606269531C63617D1CBA
:101B60003B781370626923699A4201D3E26862612B
:101B70004B46002B01D0201CC84762B6012290447E
:101B8000013E002E02D072B62F1CE0E740461CBC7E
:101B900090469946A246F0BD0000000000000000FB
:101BA0000723054907319943044A1160044A9A43BF
:101BB000044B1A607047C046F00D00106804001016
:101BC000001000106404001000000000000000007D
:101BD000C31D07229343064A1068064A1268121A68
:101BE000934203D8C318024A136000E000207047F4
:101BF00068040010640400100000000000000000F1
:101C000008B572B6FFF7E4FF62B608BD0000000039
:101C100008B50548054B036000238360C36010309E
:101C2000FFF78EFD08BDC04670040010011C0000C7
:101C3000F8B5071E00D11D4FCE1D07239E433D1C46
:101C40000835381C1030FFF7EBFD19E063689E4241
:101C500015D8321C08329A4202D923682B6008E05A
:101C6000A218236813606368083B9B1B53602A60BB
:101C700066602760FFF7DCFD201C083014E0251C9F
:101C80002C68002CE2D1FFF7D3FD3B68002B08D075
:101C9000301C08309847002805D00760466008309F
:101CA00002E0002000E00020F8BDC04670040010F3
:101CB00070B5061C041C083C2068051C0835103053
:101CC000FFF7AEFD2B1CAB4201D0A34225D21A6810
:101CD000002A01D0944220D2311C08390A601C60CD
:101CE0004868021C0832A21809688A4207D1311CD0
:101CF0000839556840190830486012680A605A6807
:101D0000111C083159188C4209D1083E71685218CB
:101D100008325A6036681E6001E01B68D3E7FFF79F
:101D200087FD70BD00000000000000000000000002
:101D300008B500F05DF9074800F0BAF900F010F8B6
:101D400000F07EF800F0ECF800F012F900F010FE60
:101D500008BDC04610560000000000000000000052
:101D600008B500F035FC08BD0000000000000000D0
:101D700008B501230370002343600C30FFF7E0FC3B
:101D800008BDC04600000000000000000000000088
:101D900010B5041C72B6416000F032FC02232370BF
:101DA00062B610BD0000000000000000000000004E
:101DB00010B584B0041C72B60020A060032020700F
:101DC000069800900798019008980290201C00F057
:101DD000AFFC431C02D10523237001E002232370D2
:101DE00062B604B010BDC046000000000000000054
:101DF00010B582B0041C72B60020A06004202070D0
:101E000004980090201C00F04BFC431C02D10523D9
:101E1000237001E00223237062B602B010BDC046F9
:101E200008B50C30FFF7FCFC08BDC0460000000000
:101E300008B5FFF7FDFC08BD000000000000000031
:101E400008B500F0DDFC08BD000000000000000047
:101E500001230370002343607047C0460000000068
:101E600010B5041C72B641608B88038100F0E0FC61
:101E70000223237062B610BD0000000000000000C5
:101E800008B572B600F02CFD62B608BD0000000077
:101E900008B572B600F04CFD62B608BD0000000047
:101EA00008B50C30FFF7A4FD08BDC04600000000D7
:101EB00008B50C3001235B42FFF79AFD08BDC04610
:101EC00008B53030FFF72CFE08BDC046000000000A
:101ED00008B5303001235B42FFF722FE08BDC04643
:101EE00008B50C30FFF75CFD08BDC04600000000DF
:101EF00008B50C3001214942FFF752FD08BDC0462C
:101F000008B53030FFF7BCFD08BDC046000000003A
:101F100008B5303001225242FFF7B2FD08BDC0467D
:101F200008B500F065FA08BD0000000000000000E0
:101F300030B583B0041C0B1C151C0C4A04C0606037
:101F400001222272201C0C30211C543100941022DA
:101F5000FFF7E6FC201C3030211C64310094102275
:101F60002B1CFFF77DFD03B030BDC0464054000080
:101F700008B500F04DF908BD0000000000000000A9
:101F800008B5012303700023436083600C30FFF722
:101F9000D7FB08BD000000000000000000000000AA
:101FA00010B5041C72B6416000F042F902232370A0
:101FB00062B610BD0000000000000000000000003C
:101FC00010B5041C72B60323037000F061F9044BD2
:101FD0009B69A3600220FFF79BFA62B610BDC04662
:101FE0004804001000000000000000000000000095
:101FF00008B50B200221FFF763F9044B044A5A602D
:1020000000229A6007221A6008BDC04610E000E076
:102010007FBB000000000000000000000000000086
:102020001E4B1A6903218A4302210A431A611C4B81
:1020300000221A628E2292009958202081439950E2
:10204000C823C046013B002BFBD1154B01221A646B
:102050005A64002159645A6423229A608E229200A5
:102060009958802081439950191C0122CB681A424B
:10207000FCD00B4B03221A6701225A6700215967D3
:102080005A67191C4B6F1A42FCD0054B01229A6704
:1020900004498022995002221A60704700C0034010
:1020A000008004405F00010000000000000000000C
:1020B000A023DB058022920141689950054AC1683E
:1020C000995084229201016899508168024A99507E
:1020D0007047C046042000000421000000000000FA
:1020E000F0B5C169826A082A00D90822CB689C072A
:1020F00020D5002A1ED001277F420F260225C36A61
:10210000002B0DD00C683440072C04D91C888C603F
:102110000233C36205E01C788C600133C36200E0C7
:102120008F60013A836A013B8362CB681D4201D014
:10213000002AE4D1F0BDC04600000000000000000D
:10214000F0B5474680B475462E4BDC69E369D90784
:1021500001D5FFF70DF8032323620420294E0F2732
:10216000B046B446321C3BE0736A002B0FD02168A6
:102170003940072905D9A1681980023361464B62AD
:1021800006E0A1681970013341464B6200E0A36884
:10219000136A013B1362002B22D16361194B5B6808
:1021A0001A68002A0CD0174C042222701B68201CCD
:1021B00098472378042B06D10222124B1A7002E0B2
:1021C0000222104B1A7072B60E4B9868002805D088
:1021D00000230C4A93604362FFF762F962B60BE09A
:1021E000E3681842C0D1074E301CFFF779FFB36A8D
:1021F000002B01D107236361281CFEF7D9FF04BC23
:102200009046F0BDB80B0010000000000000000078
:1022100010B5034C201CFFF7B3FE024BE36110BD69
:10222000B80B001000000440000000000000000097
:1022300038B5041C0378012B13D1134B984210D1ED
:10224000124B012294215A5080215D5880200001B8
:102250002843585059680A435A6014204021FFF718
:1022600007F8E36900225A60E36903221A62E3690E
:1022700061684A891A60E3696268D2681A61E36931
:1022800002225A6038BDC046B80B001000800440DE
:1022900010B5041C00234362C26281620162FFF731
:1022A0001FFFE3690F225A6110BDC0460000000005
:1022B00070B50E4B5D6F6B699A0611D510240B4EED
:1022C0003036301CFFF704FC002805DA07480430DC
:1022D0000821FFF7F5FA07E02860013C002CF0D157
:1022E0006A68022313436B6070BDC046E80B0010A0
:1022F000F8B55F4656464D464446F0B4F046394B75
:102300005C6F394E1F1C30379A460422924499461E
:10231000A3680F2213400C2B57D89B00F3589F46FD
:1023200063699907C90FC9015A0701D520221143D2
:102330001A0701D540221143DA0602D580239B00FB
:10234000194372B627480430FFF7BAFA62B6DFE7DE
:1023500072B64B465B69002B04D12248043004213D
:10236000FFF7AEFA62B66369DA07D1D51D4D0C35B9
:102370001C4B9B4604239B4472B62168C9B2281C9F
:10238000FFF7DEFA002803DA58468021FFF798FAB3
:1023900062B66369DA07EFD4BAE7102572B6381C63
:1023A000FFF796FB62B600280ADA636802229343BD
:1023B000636072B650460821FFF782FA62B6A7E75B
:1023C0002060013D002DE9D1A2E7236823689FE743
:1023D0004046FEF7EDFE3CBC90469946A246AB4611
:1023E000F8BDC046E80B001060540000000000007B
:1023F00010B5044C201C0021034AFFF799FD034B44
:10240000636710BDE80B0010B1220000008000409F
:1024100008B530290DD005D8012300290AD020297C
:1024200005D106E00223382904D0482901D0002331
:1024300000E00423836072B6C369002B07D000223A
:10244000C261022252425A62181CFFF729F862B692
:1024500008BDC046000000000000000000000000B1
:1024600008B572B6C369002B07D00022C2610122F1
:1024700052425A62181CFFF713F862B608BDC046F4
:1024800010B574468023DB055968582900D990E0BF
:102490008B004A4AD3589F46494B9B6A002B05D074
:1024A000474B1A8C8023DB059A6006E0444B1A8C5C
:1024B00001231A438023DB059A6028228023DB0551
:1024C0009A6176E08023DB0510221A6008229A6167
:1024D0003B48FFF79DFF6CE0394B9B6A002B0BD00C
:1024E000374B5A6A511C596211788022D20591608B
:1024F0009A6A013A9A6218E0314B1B6B002B04D0A8
:1025000030228023DB051A600FE010228023DB05D8
:102510001A6072B62A4BD869002805D00023284AD1
:10252000D3614362FEF7BCFF62B608228023DB055D
:102530009A613EE050290AD1214BDA6A511CD962D6
:102540008021C905896811701A6B013A1A631C4B06
:102550001B6B012B04D10C228023DB059A6128E040
:102560008023DB0504221A6008229A6121E0144BC3
:10257000D96A4A1CDA628022D20590680870196B09
:1025800001391963102111600821916172B6D8696F
:10259000002805D000230A4AD3614362FEF780FF7A
:1025A00062B606E008228023DB059A610448FFF743
:1025B0002FFF201CFEF7FCFD10BDC046A0540000FC
:1025C000600C00100000000000000000000000008F
:1025D00010B5074C201CFFF7CBFB0023E3618023E1
:1025E000DB056363034B01221A615A6110BDC046CB
:1025F000600C0010004004400000000000000000DB
:10260000F8B5051C446B4023A3610378012B14D15A
:102610001D4B984211D11D4B802298582021014317
:1026200099505968022291435960C04659680A433B
:102630005A600F20C021FEF71BFE6E6814487168B7
:10264000FDF73EFD051C3378022B05D0032B07D187
:1026500003260227012006E013260D27062002E0AC
:102660000226012701206843311CFDF729FD206166
:10267000281C7843311CFDF723FD6061226840234C
:1026800013432360F8BDC046600C00100080044076
:10269000006CDC02000000000000000000000000F0
:1026A000F0B587B0041C171C1E1C456B4900018443
:1026B0000C9B013305D001A80C99194A231CFEF785
:1026C000A7FE62B60023A360E762266372B60C9B86
:1026D000013319D0049B002B0AD106E001A8FEF7B4
:1026E000B7FE104B9B69586A17E00120404214E086
:1026F00020232B600B4B9B69E3610220FEF708FF50
:10270000049B002BEAD1ECE720232B60054B9B694F
:10271000E3610220FEF7FCFEE3E707B0F0BDC04630
:1027200061240000480400100000000000000000C8
:10273000F0B587B0041C171C1E1C456B49000184B2
:102740000E9B013305D001A80E991B4A231CFEF7EE
:102750005FFE62B60023A3606762A6620C9BE36221
:102760000D9B236372B60E9B013319D0049B002B83
:102770000AD106E001A8FEF76BFE104B9B69586A70
:1027800017E00120404214E020232B600B4B9B6993
:10279000E3610220FEF7BCFE049B002BEAD1ECE7CC
:1027A00020232B60054B9B69E3610220FEF7B0FEFE
:1027B000E3E707B0F0BDC046612400004804001004
:1027C00038B575460D4B1B691C682404240C1C602D
:1027D000E30703D5094843681B699847A30703D556
:1027E000064843689B699847230703D50348436815
:1027F0009B689847281CFEF7DBFC38BD980C00103E
:1028000010B5054C201CFFF723FB044B2361C222AB
:10281000034B9A6710BDC046980C00100040014061
:102820000040044000000000000000000000000024
:1028300010B5041C0378012B0ED1234B98420ED106
:10284000224A8023D058802189000143D150122090
:102850000321FEF70DFD02E0036900225A60636860
:10286000DB68022B02D1236901225A6763685B6926
:10287000022B04D12369596F02220A435A67636805
:1028800013481968FDF71CFC013880B22369002247
:102890009A602369D8602369FF221A602369802225
:1028A000D2005A61236961688A885A6263689B68AA
:1028B000002B05D023695969802292000A435A618E
:1028C000236901225A6010BD980C0010008004405A
:1028D000006CDC02000000000000000000000000AE
:1028E00070B503695D694C0064180726A640B543BE
:1028F0005D61002902D103699A6101E00369DA612F
:102900004B1CDB004268D3189B68002B0AD003697C
:102910000122151C8D401D6003695969A240141CD9
:102920000C435C6170BDC046000000000000000068
:1029300030B5002903D1036900229A6102E00369DE
:102940000022DA6103695A694C0064180725A54022
:10295000AA435A61036901228A401A6030BDC04609
:1029600008B5FFF75DFB08BD000000000000000097
:102970000B4B81229A618021D961AC201950C02073
:102980001950C4201950D4201A509A601A625A6201
:1029900019659A64DA641A615A61DC2299507047A9
:1029A00000400440000000000000000000000000A3
:1029B00070B582B0041CC84900F00AFD02F0B8F9F5
:1029C000C64B1B68DA0500D4C9E1C34B1A785B78A3
:1029D000092B00D9C3E19900C14841588F46802A8C
:1029E00003D0822A00D0BAE108E0BE4B1B78BE4A71
:1029F0001278002A15D00222134312E0B64B1A793E
:102A00000F231340002C01D0B84A00E0B84AD35C31
:102A1000DB00B84AD3185B889B04DB0F0021B64A61
:102A20001155AE4A10688021490001431160A2008F
:102A30000020B2495050191CAF4A125D002A0AD139
:102A4000AE4AA000855866027619AD4D735583587D
:102A50000133835009E0AB4AA0008558660276191D
:102A6000A94D7355835801338350090AC9B2A24B4B
:102A70001B5D002B0AD1A14BA200D05865022D1876
:102A80009F482954D1580131D15009E09D4BA200F3
:102A9000D05865022D189C482954D1580131D15085
:102AA000954B1B5D002B07D0002C01D08F4A00E016
:102AB0008F4AD05C01280BD1904DA6007259630259
:102AC0008F495918012000F04BFC0023735109E095
:102AD0008C4DA600725963028B49591800F040FCD6
:102AE00000237351201C00F0A3F938E1002A00D123
:102AF0005CE1022A00D032E15DE1033B5A425341DE
:102B0000794A13701AE0744A11790F220A4000D1F1
:102B100025E179490A55032B04D1002C00D050E15E
:102B2000734B4FE1002C00D056E160E15B5CDB00B1
:102B3000704AD318D97810220A43DA7000236E4AFB
:102B40001355664A10688021490001431160A200B4
:102B50006A495350201C00F06BF900E1002A00D0B4
:102B6000FDE05D4B9D787F231D405C4B1968802202
:102B700052000A431A60A3000021604A9950201CA9
:102B800000F056F95C4B1A5D002C01D0574E00E066
:102B9000574EB61801205749031C002A00D033783D
:102BA000DB00CB185B88DB0B012BF5D0281C00F079
:102BB0000FFB6B426B410325ED1A544B1D55CEE0C4
:102BC000803AD2B2012A00D9C9E0434B9A78D97829
:102BD000090211431A79201C01AB01F031FA021EDF
:102BE00000D1BCE03D4B18688021490001431960C9
:102BF000A300002041495850201C019900F0F8F929
:102C00003D4B1B5D002B04D1A20000203B495050DE
:102C100003E0A20000203E495050002C01D0334A6E
:102C200000E0334AD35CDB00324AD3185988890A62
:102C30008902802292000A435A8090E0802A00D0C4
:102C40008DE0264B196852000A431A60A300002148
:102C50002A4A99502F4B1A78274B1B5D002B0AD11B
:102C6000264BA100C85865022D1825482A54CA5879
:102C70000132CA5009E0234BA100C85865022D1843
:102C800021482A54CA580132CA501B4B1B5D002BE5
:102C900007D0002C01D0154A00E0154AD05C01286D
:102CA0000BD1164DA600725963021549591801201F
:102CB00000F056FB0023735109E0124DA600725933
:102CC00063021149591800F04BFB00237351201C7B
:102CD00000F0AEF843E0C046004600200000084087
:102CE00020560000AC0C0010AE0C00109C0400102C
:102CF0009404001000470020B0040010A404001049
:102D000000400020B404001000420020B40C001069
:102D1000A8040010AD0C0010002A20D13A4B9B787B
:102D2000012B1CD8394B1968802252000A431A60C3
:102D3000A3000021364A9950364D334B9B782B70B7
:102D4000201C00F075F82B78002B03D00422324BA6
:102D50001A5502E00422304B1A5501F0E1FF2B4BCB
:102D60001B68DA054ED5294B1968802252000A43A8
:102D70001A60A3000021264A9950002C01D0274A4E
:102D800000E0274A274B1B5DD25CD20026498A18F7
:102D900050888021890101435180002B32D1224B80
:102DA0005989802292010A435A812BE0164A92786F
:102DB000012AD4D1A1E6144A9278002A00D1A2E6D1
:102DC000BCE6164B9B5CDB00174AD318598880225F
:102DD00092010A435A80B1E6111C104B9A5CD20052
:102DE0001148821855881148284050809EE6111CD1
:102DF0000B4B9A5CD2000C48821855880B4828402F
:102E0000508093E602B070BD0046002000000840EC
:102E1000A4040010AD0C0010B40C00109C040010B1
:102E200094040010B004001000470020FFDFFFFFF3
:102E300038B5234B1B787F2B1DD9224B1B5C002BF5
:102E400004D1820000242049545003E08200002471
:102E50001E495450002801D01D4A00E01D4AD35C91
:102E6000DB001D4AD3185988890A89028022920002
:102E70000A435A8022E0134B1B5C002B07D000282A
:102E800001D0134A00E0134AD35C012B0BD10E4C46
:102E900085002A59400211490918012000F060FA02
:102EA00000232B510AE00E4C85002A5940020D499F
:102EB0000918181C00F054FA00232B5138BDC046E5
:102EC00000460020B0040010A4040010A804001064
:102ED0009C040010940400100047002000400020D3
:102EE000B4040010004200200000000000000000B8
:102EF000F0B557464E464546E0B482B08846914606
:102F00008446314B1E5C002801D0304900E0304936
:102F1000891901222F4F00252F4B05E0019C013418
:102F20000194019C9C42F9D9141C002E00D00C780D
:102F3000E4003C196488E40B012C0ED10195019C3E
:102F40009C4205D8019C01340194019C9C42F9D912
:102F50000195019C9C42E1D9E6E7494600292BD026
:102F6000194B1E5C4346454601354A46013A92B22A
:102F7000AD181A4C6746BA00194988467F02BA460E
:102F80001848194FB9461978002E09D11758BC4670
:102F9000D44467464F44397011580131115008E04C
:102FA0001759BC46D444674647443970115901311A
:102FB00011510133AB42E6D1002002B01CBC904657
:102FC0009946A246F0BDC046B00400109C04001013
:102FD00094040010004700209F0F0000B40400106C
:102FE00000420020A4040010004000200000000067
:102FF00070B5041C194B9D79D87900022843131C25
:1030000085B2AA4200D9031C9AB2201C0023FFF704
:103010006FFF134B1B5D002B07D0002C01D0114A12
:1030200000E0114AD05C01280BD1104DA600725966
:1030300064020F4BE118012000F092F90023735154
:1030400009E00C4DA600725964020B4BE11800F028
:1030500087F900237351002070BDC0460046002050
:10306000B00400109C04001094040010A40400108C
:1030700000400020B40400100042002000000000C6
:1030800010B582B0041C012916D100230B4A135439
:103090000B4A13700B4A13700B4A137040220092B4
:1030A00001930021002200F01BF9201C00F088F899
:1030B000201C012100F09CF802B010BDB40C0010DF
:1030C000AD0C0010AE0C0010AC0C001000000000A5
:1030D00038B5041C0D1C064B195500F031F8201CA6
:1030E000291CFFF7CDFF0122024B1A7038BDC046E4
:1030F000B00C0010B80C0010000000000000000030
:1031000038B5041C084B1B5C002B0BD0074B1D5C17
:1031100000221A54064B1B68DA0501D5FFF748FC5C
:10312000024B1D5538BDC046B40C0010B004001051
:103130000000084000000000000000000000000047
:1031400010B5194B8E2292009858C005C00DE82189
:103150000902084398509C58144820400143995054
:1031600001229A640021D964DA6423221A61191CAD
:1031700001224B691A42FCD00B4B0022C0215A504D
:10318000C4215A5001225A50C8215A5080215858FF
:10319000074C20435850FF218900064BD961064B4C
:1031A0009A6100F03DF810BD00800440FF0400006B
:1031B00000400008000008400040044000000000FB
:1031C0008022D203014B1A607047C04600E100E044
:1031D000054B1A687F218A431A601A6880210843C8
:1031E000104318607047C04600000840000000000F
:1031F000002906D0064B1968802252020A431A6041
:1032000004E0034B1968034A0A401A607047C0463D
:1032100000000840FFFFFEFF00000000000000006B
:1032200010B5114B00249C61012252425A61DC61AD
:103230001968A122D2010A431A600C4A1A6280223C
:1032400012065A620A4898600A4A920D9205DA609C
:103250000021502202F034F80020FFF7B9FF064B9E
:103260001C70064B1C7010BD00000840FF0300C01E
:103270000047002000400020BC040010B8040010EB
:1032800010B5134B00221A805C88A40AA402802186
:1032900089002143598059884904490C59800D49B6
:1032A000890999801A815A89920A92025A815A8907
:1032B0005204520C5A81084B196A03229143196235
:1032C000596A0A435A62054B58601860012010BDC4
:1032D000004700208047002000000840D00C00106C
:1032E00070B504AA15884A005C1EA341D318DA0001
:1032F000154CA21800241460546001261E4074422C
:103300006641DA00104CA21876025488A40AA4027E
:10331000344354800D4A166A01249C40A643166229
:10332000566A344354629C00094AA550002801D0D3
:10333000084800E0084840180022002900D0DAB20E
:103340000270012070BDC046004700200000084008
:10335000D00C00109C040010940400100000000029
:1033600030B5C30720D58300144C1B5993420CD8A9
:1033700004D1012802D10125114C25704508AD006A
:10338000D21A104C2A511A1C04E04408A40000254B
:103390000C4BE550C3000C4CE3189205940D5A8871
:1033A000920A920222435A80074BC0008909C152F7
:1033B00018184388054A1343438030BDD00C0010D1
:1033C000B8040010BC0C0010004700200080FFFF74
:1033D00008B5081C0649082201F02AFF054B598848
:1033E000054A1140598059890A405A8108BDC04692
:1033F0008047002000470020FFDFFFFF00000000A3
:10340000F8B5604B1A6A5B6A141C1C4000D1B8E026
:103410005C4B1C6224D51D6869010CD5196880229B
:10342000D2040A431A60FFF7FBFE0222564B1A70C1
:103430004020FFF725FFEA0105D5524B196880228D
:1034400052040A431A60AB010AD54E4B1968802218
:1034500092040A431A60A90302D505224A4B1A7046
:10346000A30500D18DE00127002601E001370136D8
:103470000123B3401C4200D180E0F20746D4414B07
:103480001B68D9057AD4F300404AD3185A889205AC
:10349000920D80239B009A4219D1002E05D1002065
:1034A0003B491A1CFFF75CFF0DE03A4B1B88002BD1
:1034B00064D1F0B2384980229200FFF751FF354BBA
:1034C0001B88002B5AD10122344B1A7056E0334B23
:1034D0001B78002B52D00022304B1A70002E09D1DD
:1034E0002A4B5B889B059B0D80229200D21A2C4BA5
:1034F0001A60BBE7F300254AD3185B889B059B0D38
:1035000080229200D21A274B1A6037E073089B0082
:1035100025495A58002A22D0012E0FD1234B596831
:103520001B4BCB18981849421D785D5401338342D8
:10353000FAD101201649FFF713FF97E7B3001B49A3
:1035400058581B4BC3189D18404219781954013321
:10355000AB42FAD1F0B21649FFF702FF0EE0012E9E
:103560000CD1144A1378002B00D17FE7002313708D
:10357000012007490022FFF7F3FE77E7092F00D863
:1035800074E7F8BD00000840B40C001000470020AC
:1035900000400020BA04001000440020BC040010C9
:1035A00090040010AC040010BC0C0010D00C0010F3
:1035B00000420020B80400100000000000000000DD
:1035C000F0B55F4656464D464446F0B483B0051C00
:1035D00000238373C373037443748374C3740375C8
:1035E00043758375C37503764376012480239B4618
:1035F0000326B04600239A466B78A34204D16F8815
:1036000029795B4602220EE06B79A34204D1EF8850
:10361000297A5346022206E06B7AA3420ED16F89C3
:10362000297B5B464246687B4E1EB14149000097AC
:103630000191211CFFF754FE002804D00134E4B2AC
:10364000042CD9DD012003B03CBC90469946A2462B
:10365000AB46F0BD000000000000000000000000CC
:1036600038B5041C437B1C48C55C0220042D31D1B5
:10367000608AA58A2D0405430220002D2AD0607897
:10368000164DE854607B0023FFF732FC637BEA5C55
:10369000002A07D0002B01D0114900E01149885CB5
:1036A00001280CD1104C9D002A595B020F49591872
:1036B0000120FFF755FE00232B5100200AE00C4C9F
:1036C0009D002A595B020B495918FFF749FE002358
:1036D0002B51002038BDC046B40C0010B0040010BF
:1036E0009C04001094040010A4040010004000206A
:1036F000B4040010004200200000000000000000A0
:1037000010B5031C427B2C49895C0020042952D14E
:10371000588A998A09040143002000294BD058791E
:10372000264988545B7B002B01D0254900E02549C0
:10373000224AD25C895CC900234841184888800528
:10374000800D80218900884234D0002A06D199005A
:103750001E48095889B2002907D021E099001C4869
:10376000095889B2002905D01FE0990000241948A2
:103770000C5003E09900002417480C50002B01D096
:103780000F4B00E00F4B9B5CDB000F4AD3185988AE
:10379000890A8902802292000A435A8000200AE0A6
:1037A0009B000A4A985880B205E09B00084A985846
:1037B00080B200E0002010BDB40C0010B004001076
:1037C0009C04001094040010004700209004001096
:1037D000AC040010A4040010A804001000000000B5
:1037E00030B5437B484AD25C042A78D1418A828A28
:1037F00012040A4375D04179444AD154437B002BCB
:1038000001D0434900E04349404AD25C895CC90089
:10381000414C61184C88A405A40D802189008C427C
:1038200061D0002A06D19A003C49525892B2002A2F
:1038300007D15BE09A003A49525892B2002A0FD160
:103840005AE0384C9A0011595B025B183649595CB2
:10385000135901331351314BD458013CD4500DE06E
:10386000324C9A0011595B025B183149595C13596B
:10387000013313512A4BD458013CD450437B1A1CBA
:103880002248C05C002807D19400244D6459A4B29A
:10389000002C09D0081C27E09400214D6459A4B2E3
:1038A000002C06D0081C1FE0920000251D4C15516D
:1038B00003E0920000251D4C1551002B01D0144B44
:1038C00000E0144B1B5CDB00134AD3185888800AB5
:1038D00080028022920002435A80081C04E01548AE
:1038E00002E0144800E0134800B20BE0437B1A1CCE
:1038F0000649C85C0F49C7E7437B1A1C0349C85CEB
:103900000C49C9E730BDC046B40C0010B00400102B
:103910009C04001094040010004700209004001044
:10392000AC040010A404001000400020A804001003
:1039300000440020FFFF0000000000000000000025
:103940007047C046000000000000000000000000BA
:103950007047C046000000000000000000000000AA
:10396000F8B5041CCF4B1B68DA0500D4AFE2CE4B90
:1039700019795B791B0202780B439A4200D0A6E2C8
:10398000C94B5B78212B0DD0DAB2212A03D8202B2A
:1039900000D110E19BE2222B00D165E2232B00D164
:1039A0007EE294E2C04B1B78A12B00D08FE2427BD9
:1039B000BC4B186880214900014319609200002126
:1039C000BA4BD150617BBA4B5A5C002901D0B94E39
:1039D00000E0B94EB6180125B8482B1C002A00D0CB
:1039E0003378DB00C3185B88DB0B012BF5D0608AD2
:1039F000A38A1B040343D8B2002A0AD1AB4A8D0024
:103A0000AE584F02BF19AE4EB855A8580130A85055
:103A100009E0AC4A8D00AE584F02BF19AA4EB85506
:103A2000A8580130A8501A0AD0B2A14A525C002A04
:103A30000AD19E4A8D00AE584F02BF19A04EB8550C
:103A4000A8580130A85009E09E4A8D00AE584F0298
:103A5000BF199D4EB855A8580130A8501A0CD0B2C5
:103A6000934A525C002A0AD1904A8D00AE584F0208
:103A7000BF19934EB855A8580130A85009E0914A93
:103A80008D00AE584F02BF198F4EB855A85801305F
:103A9000A8501B0E864A525C002A0AD1834A88002D
:103AA000855849024919864D4B5583580133835037
:103AB00009E0844A8800855849024919824D4B55CE
:103AC000835801338350A17D637B794AD25C002AFD
:103AD0000AD1764A980085585B025B19784D595592
:103AE00083580133835009E0764A980085585B0279
:103AF0005B19754D5955835801338350E17D637BC4
:103B00006B4AD25C002A0AD1684A980085585B0249
:103B10005B196B4D595583580133835009E0694A4D
:103B2000980085585B025B19674D595583580133DE
:103B30008350217E637B5E4AD25C002A0AD15B4AB5
:103B4000980085585B025B195D4D595583580133C8
:103B5000835009E05B4A980085585B025B195A4D17
:103B60005955835801338350637B514AD25C002AF4
:103B700007D0002B01D04F4900E04F49885C012855
:103B80000BD14A4D9E0072595B024D4959180120D4
:103B9000FFF7E6FB0023735109E04A4D9E0072597E
:103BA0005B0249495918FFF7DBFB00237351607B27
:103BB000FFF73EF98BE13C4B1B78212B00D086E1CF
:103BC000427B384B186880214900014319609200FC
:103BD0000021364BD150627B354B9D5C002A01D0D1
:103BE000344B00E0344B5B5DDB003448C01880216F
:103BF000890043889B059B0D8B42FAD0002D0ED186
:103C00002A4891000B585502ED182D4BEB5C0D58CE
:103C100001350D502D480D58013D0D500DE02C483B
:103C200091000B585502ED182A4BEB5C0D580135ED
:103C30000D5029480D58013D0D501D49895C002942
:103C40000ED11A4D91004859560236181C48305C66
:103C50004E5901364E511D4D4E59013E4E510DE00B
:103C60001B4D91004859560236181A48305C4E597F
:103C700001364E51184D4E59013E4E510C49895C4A
:103C800000292BD1094D91004E595702BF190C4EF6
:103C9000BE5D4F5901374F510C4D4F59013F4F51A8
:103CA0002AE0C0460000084000460020A40400109E
:103CB000B00400109C040010940400100047002081
:103CC00000400020B40400100042002090040010C6
:103CD000A804001000440020AC0400107C4D9100AA
:103CE0004E595702BF197B4EBE5D4F5901374F5198
:103CF000794D4F59013F4F51784DAD5C002D0ED19C
:103D0000774D91004F595202D219764FD25D4F59DB
:103D100001374F51744D4F59013F4F510DE06C4DDC
:103D200091004F595202D2196A4FD25D4F59013753
:103D30004F51694D4F59013F4F5100020343310428
:103D40000B431206134363821B0CA382637B634AFB
:103D5000D25C002A0ED162499A0050585B021B18AF
:103D600060481B5C5058013050505F495058013832
:103D700050500DE056499A0050585B021B185548A8
:103D80001B5C505801305050534950580138505026
:103D9000A375637B514AD25C002A0ED150499A0028
:103DA00050585B021B184F481B5C50580130505054
:103DB0004D495058013850500DE045499A0050582F
:103DC0005B021B1843481B5C50580130505042495D
:103DD000505801385050E375637B404AD25C002A4A
:103DE0000ED13F499A0050585B021B183D481B5C9E
:103DF0005058013050503C495058013850500DE057
:103E000033499A0050585B021B1832481B5C5058CB
:103E10000130505030495058013850502376637B60
:103E20002E4AD25C002A04D1990000252C480D505E
:103E300003E09900002526480D50002B01D02B4BA4
:103E400000E02B4B9B5CDB002A4AD3185988890A77
:103E50008902802292000A435A80607BFEF7E8FFC5
:103E6000201CFFF76DFD32E0234B1B78212B2ED158
:103E7000427B224B1868802149000143196092005F
:103E80000021174BD150607BFEF7D2FF1A4B9A7876
:103E9000DB781B021343E381201CFFF751FD16E082
:103EA000154B1B78212B12D1427B144B18688021B3
:103EB00049000143196092000021094BD150607BF9
:103EC000FEF7B6FF0C4B9978201CFFF741FDF8BDBB
:103ED000A804001000440020AC040010B00400103E
:103EE000A404001000400020900400109C04001066
:103EF0009404001000470020004600200000084005
:103F000038B50C1C224D0540FE239B05ED184000E2
:103F1000000E8038FCF7F4FF291CFCF7C9F9011CDE
:103F2000201CFCF725FD041C0021FCF7B1F900283A
:103F300006D0201CFCF7C4FFFCF7E2FF011C06E0E2
:103F4000201CFCF7BDFF0138FCF7DAFF011C201C28
:103F5000FCF73EFE051C291CFCF70AFD011C281C71
:103F6000FCF736FE051C201C0A49FCF7A1F9041CCD
:103F7000281C0949FCF7FCFC011C201CFCF728FE4E
:103F80009621C905FCF7F4FCFCF79AFF38BDC04642
:103F9000FFFF7F800000FE4252B89E3E00000000FE
:103FA000014B18607047C046C004001000000000BC
:103FB000F0B557464E464546E0B482461A4F38683B
:103FC0001A4B1968FCF774F9051C194B1968FCF7B2
:103FD0006FF9011C281CFCF7DBFA8046154C2068A1
:103FE00022689146FCF78CFF061C53464A46981AF5
:103FF000FCF786FF4146FCF7BBFC011C301CFCF7BC
:1040000057F9FCF75DFF061CFE2080054146FCF7D2
:10401000DFFD291CFCF7ACFC38602660301C1CBCA2
:1040200090469946A246F0BDF80C001034030010EB
:1040300038030010C0040010000000000000000061
:104040000A0A022A06D0032A07D0012A19D0002022
:1040500000221BE00E4A508818E0CAB2012A08D09C
:10406000002A02D0022A08D00EE00A4A126810780C
:104070000CE0094A1268107808E0084A12681078C3
:1040800004E01220064A01E0002000221A60704776
:104090008C03001088030010CC030010780300107C
:1040A0003C030010000000000000000000000000C1
:1040B00084B010B5041C0391101C04920593FCF706
:1040C0001FFF1449FCF764FA011C201CFCF760FA7E
:1040D0001149FFF715FFFE218905FCF779FD041C46
:1040E0000398FCF70DFF0B49FCF752FA0B49FCF75C
:1040F000DFF8011C201CFCF73BFC0949FCF748FADF
:104100000449FCF735FCFCF7DBFE10BC08BC04B02E
:104110001847C046000020415AD5423E3393884399
:10412000F4FDD43B0000000000000000000000008F
:1041300084B070B50E1C0591151C069207931549A5
:10414000FCF716FC041C281CFCF7DAFE1249FCF7ED
:104150001FFA051C301CFCF7D3FE0F49FCF718FAB8
:10416000211CFCF7A5F80D49FCF7A2F8011C201C46
:10417000FCF70EFA011CFE208005FCF729FD08491A
:10418000FFF7BEFE291CFCF7F3FB70BC08BC04B0B3
:104190001847C046F4FDD43B0000204133938843C8
:1041A0002731A8C00000000000000000000000004F
:1041B00080210906024BA022D205D1507047C0468B
:1041C0008422000000000000000000000000000049
:1041D00070B586B06E461023F3751736154C002364
:1041E00023606360A360E360238280210906124B91
:1041F000A022D205D150114D281CFDF711FE0094CC
:104200001223019301235B420293281C5021321C8C
:104210000123FDF7CDFD281CFDF70AFE231C0E34FB
:104220001A881102120A0A431A800233A342F7D1F4
:1042300006B070BDFC0C001084220000600C001061
:10424000F0B54F464646C0B487B0051C89466F4658
:104250000026FE82163705A83249022200F0E8FF48
:1042600013226A449046FD2313702F4B6B6080210C
:1042700009062E4BA022D205D1502D4C201CFDF753
:10428000CFFD00960196012676420296201C7721EA
:1042900005AA0223FDF78CFD201CFDF7C9FD28208F
:1042A000FDF71EFA201CFDF7BBFD009702230193CA
:1042B0000296201C772142460123FDF779FD061C5A
:1042C000201CFDF7B5FD301E26D16A46D18A0B02AF
:1042D000090A0B439BB2D38280200006154AA02115
:1042E000C9058850144A9B182A6953439B13EA68EE
:1042F0009B1A6B619A00D3185B005B110F4A92897D
:1043000096329B186B6000204A46002A04D0181C85
:10431000FFF74EFE6860002007B00CBC904699463F
:10432000F0BDC04660530000FBF2FFFF0422000016
:10433000600C00108422000000E4FFFFFC0C001061
:10434000F0B5474680B486B0051C6F460026FE8255
:10435000163705A83C490431022200F069FF1322F8
:104360006A449046FD231370384B2B608021090668
:10437000374BA022D205D150364C201CFDF750FD02
:1043800000960196012676420296201C772105AA06
:104390000223FDF70DFD201CFDF74AFD2820FDF747
:1043A0009FF9201CFDF73CFD009702230193029624
:1043B000201C772142460123FDF7FAFC061C201C35
:1043C000FDF736FD301E3BD16B4616331B881A02B3
:1043D0001B0A1A4392B2802000061F4BA021C90578
:1043E000C8501E4B1B899A4202D31C498C7B01E0AA
:1043F0001A49CC7BD21A111C51438913174B187CD4
:104400000441201C4843101AA8605988DA88144CCB
:104410001219424392138A189200EA6019889A8806
:10442000424392128A182A615C8944432414FA3464
:104430005B7C01219940FBF793FE241A2C6000203D
:1044400006B004BC9046F0BD60530000FBF2FFFFD5
:1044500004220000600C001084220000FC0C0010FC
:1044600000FCFFFF00000000000000000000000052
:10447000F0B55F4656464D464446F0B485B0071C3D
:104480008B46924601930EAB02CB1B780293109E93
:10449000119B023A5C460E2A7FD8002203925146B5
:1044A0000A2903D10390C21787185740002B0DD05B
:1044B0001A78002A0CD05D460135691E0A70013356
:1044C000002B06D01A78002AF6D102E05D4600E003
:1044D0005D4601231C1CB146381C5146FBF740FECB
:1044E000061C691C8846381C5146FBF78FFE304A73
:1044F000535C2B70019BA34203D1A91C88462E223A
:104500006A700134002E02D0371C4546E4E7444669
:104510004E4643460399002902DA01342D221A70CF
:10452000002E05D032780123002A09D1002300E0B3
:1045300000235946621AD2180E99914204DC0EE00B
:10454000F25C002A27D1F4E759460E98029D013407
:10455000621E1570621AD2189042F8DC8B46002E4B
:104560000BD03378002B08D00134621E1370013653
:10457000002E02D03378002BF6D1631E9B450CD25F
:104580005A461878013B117859700132511E087053
:104590009342F6D801E00133D2E700232370584656
:1045A00005B03CBC90469946A246AB46F0BDC0461D
:1045B0005056000000000000000000000000000055
:1045C000F0B55F4656464D464446F0B489B0141CDB
:1045D0001D1C6B46D87107336A4691710022069202
:1045E00006A98A8003A9039204920A81002C00D1B3
:1045F00077E1013B1B780F2B00D972E1C1B208298A
:1046000000D96EE16A1E012A00D96AE15800181823
:1046100040006843C0B25A2800D962E160231B1AE7
:10462000DFB2012D04D023780026002B34D139E0ED
:104630002378002B00D134E100260136A35D002B46
:1046400002D0112EF9D106E10620684480460623E7
:104650005B427343FF186A460732402319431170C7
:1046600080235B421F430770A025ED0580277F0351
:104670008A239B01EF509E498946081C0121FDF7C2
:104680009FFC484601214246FDF79AFC88239B0186
:10469000EF50002E34DCA8E00136A35D002B01D0E2
:1046A0000A2EF9D106226A4491465A23181A0A237F
:1046B0005B427343C3186A460732402001431170BE
:1046C0008020404218434B461870A027FF058023E6
:1046D0005B0398468A239B014046F85084498A46EA
:1046E000081C0121FDF76CFC504601214A46FDF7EC
:1046F00067FC88239B014246FA50022D1BD074E0D0
:10470000013E7C4B98467A4FA35D5A00D218520066
:1047100042446B461D3368461730117819700132D8
:10472000013B8342F9D1381C062106AAFDF748FC5B
:10473000013EE9D259E0002E57DD013E03A800906A
:104740006B498946051C0A35A35D203BDBB29A0004
:10475000D2189200684B9A186F460B376B46153388
:10476000117819700132013BBB42F9D148460A2148
:1047700003AAFDF725FC6A4607321378013313704C
:10478000A023DB05984680235B039A468A239B017E
:1047900051464046C15048460121FDF711FC4846AC
:1047A00001216A460632FDF70BFC88239B01504627
:1047B0004246D050A35D203BDBB29A00D3189B0049
:1047C0000A334D4AD2186B461533117819700132ED
:1047D000013BBB42F9D103AB802149421A780A431D
:1047E0001A700133AB42F9D107E0802149038A23D3
:1047F0009B01A022D205D15073E03D498846081C98
:104800000A2103AAFDF7DCFB6A4607321378013B55
:1048100013706F46BB790A33BB710637A023DB05E3
:104820009A4680235B039B468A239B015946504648
:10483000C15040460121FDF7C3FB404601213A1C0F
:10484000FDF7BEFB88239B0158465246D050013EDF
:1048500000D379E7C9E706226A44904606235B4203
:104860007343FF186A4607324023194311708023AF
:104870005B421F4343461F70A025ED0580277F0341
:104880008A239B01EF501A4881460121FDF798FBCE
:10489000484601214246FDF793FB88239B01EF50D8
:1048A0002EE76E466A460732402319431170802373
:1048B0005B421F43B7710636A024E40580256D03D3
:1048C0008A239B01E5500A4F381C0121FDF778FB34
:1048D000381C0121321CFDF773FB88239B01E55036
:1048E00083E709B03CBC90469946A246AB46F0BD72
:1048F000B80B001070560000705900000000000056
:1049000070B582B001AC201C1349022200F090FC6B
:10491000A025ED05802676038A239B01EE500F48E3
:104920000221221CFDF74CFB88239B01EE50002343
:1049300023700B4C094D281C012101AAFDF740FBF7
:10494000013C002CF7D1802149038A239B01A0223E
:10495000D205D15002B070BD70530000B80B0010EA
:1049600096030000000000000000000000000000AE
:1049700070B582B06C460023E37168461F4904316C
:10498000072200F055FCA025ED058026B6041C4B3F
:10499000EE500A20FCF7A4FE1A4BEE508022520380
:1049A0008A239B01EA50184D281C07216A46FDF70F
:1049B00007FB1623E3710734281C0121221CFDF795
:1049C000FFFA01232370281C0121221CFDF7F8FAAD
:1049D000FFF796FF0D232370281C0121221CFDF7F1
:1049E000EFFAFA20FCF77CFE0C232370281C01212F
:1049F000221CFDF7E5FA02B070BDC04670530000FE
:104A00008422000004220000B80B00100000000007
:104A100084B030B589B00C900D910E920F9305AC17
:104A200000230593069323810923009320230193F8
:104A3000094B0293094B0393211C0A220123FFF720
:104A400017FD01200021221C0223FFF7B9FD09B048
:104A500030BC08BC04B01847905B0000945B0000B9
:104A600084B010B588B00A90081C0B910C920D937D
:104A700005AC00230593069323810923009320238B
:104A800001930A4B02930A4B0393211C0A22012330
:104A9000FFF7EEFC03200021221C0223FFF790FD0C
:104AA00008B010BC08BC04B01847C046985B0000B2
:104AB0009C5B0000000000000000000000000000FF
:104AC00010B588B005AC0023059306932381092314
:104AD000009320230193084B0293084B0393211C5E
:104AE0000A220123FFF7C4FC05200021221C022317
:104AF000FFF766FD08B010BDA05B0000A45B0000DE
:104B000010B588B0030C059000240794D8B2022396
:104B10000093302301930294039407A90A220023EF
:104B2000FFF7A6FC00200E2107AA0123FFF748FD8E
:104B300005ABD87803230093202301930294074BFD
:104B4000039307A90A220023FFF792FC00200B2100
:104B500007AA0123FFF734FD08B010BDA85B0000D1
:104B600000B583B0084B1B78002B0AD1074B01938B
:104B70000020002101AA0123FFF722FD0122024BA0
:104B80001A7003B000BDC046C40400105553420063
:104B900000B583B0084B1B78002B0AD0074B01935C
:104BA0000020002101AA0123FFF70AFD0022024B89
:104BB0001A7003B000BDC046C404001020202000BD
:104BC00010B586B005A80C49032200F031FB0B4C50
:104BD000201CFDF725F900230093019301235B427C
:104BE0000293201C322105AA0223FDF7E1F8201CC4
:104BF000FDF71EF906B010BD80530000600C0010D8
:104C000030B585B002AD00232B70194C201CFDF788
:104C100007F901235B420093201C32212A1C042344
:104C2000FDF7E6F8201CFDF703F900230624644293
:104C300002A9CA1851780809604309185170013354
:104C4000032BF5D1029B180A190CFF221040000219
:104C50001C1C144020430A4012040649084010431B
:104C60001B0E1B060002000A184305B030BDC046EB
:104C7000600C0010FFFF00FF0000000000000000BB
:104C800070B586B0061C04AC3023E3700D4D281CB3
:104C9000FDF7C6F806AB00930723019301235B429F
:104CA0000293281C3221221C0123FDF781F8281CC5
:104CB000FDF7BEF8301C211C082200F0B9FA301CA8
:104CC00006B070BD600C0010000000000000000085
:104CD00008B5034B587B0121FEF7FAF908BDC04621
:104CE000D0030010000000000000000000000000E1
:104CF00010B584B00848FEF703FD00280AD0064C22
:104D0000201CFEF76DFD6B461870201C69460122C1
:104D1000FEF7A6FC04B010BDD00300100000000098
:104D200008B50248FEF74CFC08BDC046D003001091
:104D300008B50248FEF714FE08BDC046D0030010B7
:104D4000002070470000000000000000000000008C
:104D5000002070470000000000000000000000007C
:104D600008B50748002329228354282283542C3075
:104D7000FCF7E6FCFFF7ECFF024B186008BDC046ED
:104D8000C80400100405001000000000000000002E
:104D9000F8B5061C154C201C2C30FCF741FD2A23CD
:104DA000E35C5AB2092A05DC01332A220F498B54ED
:104DB00000270DE00D4C292563579B001859FCF77F
:104DC00077FF605701300A21FBF720FA6155012770
:104DD000064C282563579A001651581C0A21FBF7E8
:104DE00015FA6155FCF724FD381CF8BDC804001005
:104DF00070B52A23104AD356002B18D0131C292231
:104E00009A569200D458201CFFF79AFF00280ED122
:104E1000094D2926A85701300A21FBF7F7F9A955B2
:104E20002A23EA5C013AEA54201CFCF741FF2A23BA
:104E3000014AD05670BDC046C804001000000000F2
:104E400080214904024BA022D205D1507047C046B0
:104E500084220000000000000000000000000000AC
:104E600080214904024BA022D205D1507047C04690
:104E7000042200000000000000000000000000000C
:104E8000F0B5474680B40C4B9B690C4A9A61A0254B
:104E9000ED058A239B0198468026371C4346EF5038
:104EA000FA246400201CFCF71BFC88239B01EE50B5
:104EB000201CFCF715FCF1E748040010B05B000073
:104EC00010B5064B9B69064A9A61C824A400FFF7F7
:104ED0008FFF201CFCF704FCF9E7C04648040010D3
:104EE000BC5B0000000000000000000000000000AB
:104EF00038B50C4B9B690C4A9A610C4D0C4C2B78C5
:104F0000042B02D1FFF72CFE01E0FFF741FEFFF773
:104F1000EFFE607B0121FEF7F3F81E20FCF7E0FBBB
:104F2000EDE7C04648040010C85B0000B40C001058
:104F3000D00300100000000000000000000000008E
:104F400070B582B0114B9B69114A9A61114C251CB6
:104F5000261CFFF755FE030A2060DBB2012B0DD89B
:104F6000AB78002B0AD1F378002B07D16846FFF706
:104F700087FE09486946082200F05AF9054B18686F
:104F8000FFF7BEFD6420FCF7ABFBE2E7480400102E
:104F9000D05B0000A80B0010B00B00100000000058
:104FA000F0B54F464646C0B48BB0334B9B69334A8D
:104FB0009A610024324E3348804633498946002C9A
:104FC0001ED104A8FFF7BCF908AB6A4630CB30C24B
:104FD00004980599069A079BFFF71AFD04A801217A
:104FE000FFF72EF9264B186807AB6A4692CB92C2A0
:104FF0000499059A069BFFF75BF8051C162429E027
:1050000004A80121FFF71CF9013CE4B2306807ABAA
:105010006A46A2CBA2C20499059A069BFFF748F8FC
:10502000051CA20716D100200C21FCF701FE002868
:1050300010D085604746FB790370BB7943707B795C
:1050400083704946CB78C3708B7803714B7843717A
:10505000FFF79EFE08AB6A4681CB81C20498059992
:10506000069A079BFFF7FCFC281CFFF729FD32205E
:10507000FCF736FBA3E7C04648040010DC5B0000E9
:10508000AC0B0010B00B0010A80B001000000000CB
:1050900070B58CB0FCF74CFEFCF73AF94C484D4922
:1050A000FCF77EFF4C484D49FCF772FEFFF758FEB7
:1050B000FFF75EFCFFF784FD80210903484BA02227
:1050C000D205D150FFF774F8FFF782F8FFF700FE22
:1050D00004A8FFF7D5FD434804A9082200F0A8F86A
:1050E000414C201C4149FCF7BBFE201C0021322210
:1050F000FCF7C6FE3220FCF7F3FA201C0021FCF777
:10510000C7FE06A8FFF71CF91920FCF7E9FA06A864
:10511000FFF716F91920FCF7E3FA06A80021FFF7BC
:105120008FF81920FCF7DCFA06A80021FFF788F8B1
:105130000798FEF735FF09AB6A4613CB13C20699F1
:10514000079A089B2A48FEF7F3FF2A4B18600024B1
:1051500000942948802149000222284BFCF7B0FA2C
:1051600000942748D02149007F22264BFCF7A8FA5B
:1051700000942548B42149000222244BFCF7A0FAF0
:1051800000942348C42149004022224BFCF798FA9E
:1051900000942148882149000222204BFCF790FA14
:1051A000A024E4052F251E4E635D002B0BD1802328
:1051B0001B03A351635D002B05D14B20FCF790FA34
:1051C000635D002BF9D07D20FCF78AFAECE7C0463E
:1051D000B80B00101C030010600C00102C03001012
:1051E00004220000B00B0010980C00100003001007
:1051F0000000C841AC0B001008050010814E0000F3
:1052000008060010A14F0000A8070010414F000041
:1052100010090010F14E0000980A0010C14E000065
:105220000423000000000000000000000000000057
:10523000F0B50F2A35D9031C0B439C0735D1161C3A
:10524000103E36093501451910350C1C031C276822
:105250001F6067685F60A7689F60E7681034DF6061
:105260001033AB42F3D1731C1B01C518C9180F23AF
:105270001340032B1BD91C1FA4080134A4000023D6
:10528000CE58EE500433A342FAD1ED18C9180323C7
:105290001A4005D00023CC5CEC5401339342FAD180
:1052A000F0BD051C002AF5D1FAE7051CF2E71A1C2F
:1052B000F8E7C04600000000000000000000000009
:1052C000F0B5830746D0541E002A42D0CEB2031C4C
:1052D000032503E0621E002C3BD0141C01335A1E30
:1052E00016702B42F6D1032C2BD9FF250D402A0234
:1052F00015432A0415430F2C15D9271C103F3F09CD
:105300001E1C3A011036B6181A1C156055609560BF
:10531000D5601032B242F8D101373F010F22DB19BC
:105320001440032C0DD9271FBF08BA001E1DB61844
:105330001A1C20C2B242FCD10137BF000322DB1984
:105340001440002C05D01C19C9B219700133A342B6
:10535000FBD1F0BD141C031CC5E7C04600000000D3
:10536000FFF00000FFE80000000000000000000067
:10537000408000003908E01606380C0000000000EC
:10538000E02000000000000000000000000000001D
:10539000DC0600008E060000BC06000016060000B9
:1053A000BC060000B2060000BC06000016060000A5
:1053B0008E0600008E060000B206000016060000F1
:1053C0000E0600000E0600000E060000C2060000D9
:1053D000980A0000920A0000920A0000880A000061
:1053E000E8090000E80900007E0A0000880A0000C1
:1053F000E80900007E0A0000E8090000880A0000B1
:10540000E6090000E6090000E6090000200B0000A4
:1054100069646C65000000000000000000000000EE
:105420006D61696E00168511040448080C1014188B
:10543000001C1D1E1F2000000000000000000000D6
:10544000D11E0000B11E0000111F0000F11E00005F
:10545000011F0000E11E0000C11E0000A11E00008F
:10546000CA230000D02300009A230000CA230000B2
:1054700050230000CA23000020230000CA2300009C
:10548000CA230000CA230000CA230000CA23000068
:105490005023000000000000000000000000000099
:1054A000A4250000B2250000B2250000B2250000AE
:1054B000B2250000B2250000B2250000B225000090
:1054C00098240000B2250000B2250000B22500009B
:1054D000B2250000B2250000B2250000B225000070
:1054E000B2250000B2250000B2250000B225000060
:1054F000B2250000B2250000B2250000B225000050
:10550000D8240000B2250000B2250000B22500001A
:10551000B2250000B2250000B2250000B22500002F
:10552000C4240000B2250000B2250000B22500000E
:10553000B2250000B2250000B2250000B22500000F
:10554000D8240000B2250000B2250000B2250000DA
:10555000B2250000B2250000B2250000B2250000EF
:10556000C4240000B2250000B2250000B2250000CE
:10557000B2250000B2250000B2250000B2250000CF
:10558000A4250000B2250000B2250000B2250000CD
:10559000B2250000B2250000B2250000B2250000AF
:1055A00034250000B2250000B2250000B22500001D
:1055B000B2250000B2250000B2250000B22500008F
:1055C000C4240000B2250000B2250000B22500006E
:1055D000B2250000B2250000B2250000B22500006F
:1055E00034250000B2250000B2250000B2250000DD
:1055F000B2250000B2250000B2250000B22500004F
:105600006E25000000000000000000000000000007
:105610008400100094001000000000820000088345
:10562000DE290000EC2A00005E2D0000EC2A0000BC
:105630005E2D00005C2B0000C02B00005E2D0000E2
:105640003C2C0000182D00000000000000000000AD
:1056500030313233343536373839414243444546A8
:10566000000000000000000000000000000000003A
:105670003E5149453E0000427F4000004261514991
:1056800046002141454B31001814127F1000274578
:10569000454539003C4A494930000171090503007C
:1056A000364949493600064949291E0000000000D4
:1056B00000000000000000000000000000000000EA
:1056C00000000000000000000000000000000000DA
:1056D00000000000000000000000000000000000CA
:1056E00000000000000000000000000000000000BA
:1056F00000000000000000000000000000000000AA
:105700000000000000000000000000000000000099
:105710000000000000000000000000000000000089
:105720000000000000000000000000000000000079
:1057300000000000000000005F00000000070007FC
:105740000000147F147F1400242A7F2A12002313E0
:10575000086462003649552250000005030000002D
:10576000001C224100000041221C0000082A1C2AC3
:10577000080008083E080800005030000000080833
:105780000808080000303000000020100804020063
:105790003E5149453E0000427F4000004261514970
:1057A00046002141454B31001814127F1000274557
:1057B000454539003C4A494930000171090503005B
:1057C000364949493600064949291E000036360047
:1057D0000000005636000000000814224100141496
:1057E000141414004122140800000201510906009B
:1057F000324979413E007E1111117E007F494949AD
:1058000036003E41414122007F4141221C007F4938
:10581000494941007F09090101003E4141513200DF
:105820007F0808087F0000417F4100002040413F81
:1058300001007F08142241007F40404040007F0269
:1058400004027F007F0408107F003E4141413E007A
:105850007F09090906003E4151215E007F0919298F
:10586000460046494949310001017F0101003F409E
:1058700040403F001F2040201F007F2018207F0055
:10588000631408146300030478040300615149455C
:10589000430000007F414100020408102000414104
:1058A0007F0000000402010204004040404040002C
:1058B0000001020400002054545478007F484444FE
:1058C0003800384444442000384444487F00385469
:1058D00054541800087E09010200081454543C0076
:1058E0007F080404780000447D4000002040443DCF
:1058F0000000007F1028440000417F4000007C042D
:10590000180478007C0804047800384444443800C3
:105910007C1414140800081414187C007C08040477
:105920000800485454542000043F444020003C40A8
:1059300040207C001C2040201C003C4030403C00AB
:105940004428102844000C5050503C004464544CEF
:10595000440000083641000000007F0000000041C4
:10596000360800000201020402003C2623263C0007
:105970000000000000000000000000000000000027
:1059800000000000808080808080808000003F01D7
:1059900000013F0100013F00000000000000000086
:1059A00000000000000000000000000092920000D3
:1059B00080F09C268A222424203C072208220822E8
:1059C0008EEA6E30303030302000071F1830303013
:1059D0003030100080808000007E080870003F0892
:1059E000080700382A2A3E0080BE8282BE8282BC1E
:1059F00080000000242A2A2A10000000F804828275
:105A0000E2E2928A04F828292A2E20202E2A292828
:105A1000080C7E0C08BC849884BC08183F18080049
:105A2000242A2A100000FC02F202FC5454000E1139
:105A3000242E2F2E24110E00000000000000000074
:105A40000000000000000000000000000000000056
:105A50000000000000000000000000000000000046
:105A60000000000000000000000000000000000036
:105A70000000000000008080808080800000000026
:105A80000101010101010000000000000000000010
:105A900000000000003030000000000000000000A6
:105AA00000000000000000000000000000000000F6
:105AB000F0FC0E0606060EFCF000071F38303030F2
:105AC000381F0700001018180CFEFE000000000030
:105AD0000000003F3F000000040C060686C6663C3E
